:100000000C9485000C94A2000C94A2000C94A20005
:100010000C94A2000C94A2000C94A2000C94A200D8
:100020000C94A2000C94A2000C94A2000C94A200C8
:100030000C94A2000C94A2000C94A2000C94A200B8
:100040000C94A2000C94A2000C94A2000C94A200A8
:100050000C94A200E0046305630563056305BF0417
:100060006305630563056305630563056305EB04C9
:10007000D5046305F60401050C05170522052D05B9
:10008000380543054E055905630563056305CA0434
:1000900063056305630504046305510467042504CF
:1000A0000F0463058804B40463057D0463059E049E
:1000B00046046305630530041A04A90472043B0472
:1000C0006305630563055C049304630563056305C9
:1000D000630563056305040463055104670425048F
:1000E0000F0463058804B40463057D0463059E045E
:1000F00046046305630530041A04A90472043B0432
:100100006305630563055C04930411241FBECFE5FA
:10011000D8E0DEBFCDBF10E0A0E6B0E0E6EEF6E14D
:1001200002C005900D92A038B107D9F720E0A0E8F1
:10013000B0E001C01D92A338B207E1F70E945F064C
:100140000C94710B0C9400000E94FA0260E082E0B3
:100150000E949F084AE560E082E00E94D70882E0A2
:100160000E94820708958F929F92AF92BF92CF9282
:10017000DF92EF92FF920F931F93CF93DF93CDB750
:10018000DEB728970FB6F894DEBF0FBECDBF8C0147
:1001900019821A821B821C821D821E821F8218866F
:1001A000BE016F5F7F4F82E00E94DE07CD80DE8060
:1001B000EF80F884F801C186D286E386F4868980D0
:1001C0009A80AB80BC8081829282A382B482A50196
:1001D0009401C701B6010E943509F8016583768351
:1001E00087839087A701960160E070E080E89FE335
:1001F0000E94A209F801658776878787908B20E0A7
:1002000030E048EC52E4C501B4010E94D10AA701D4
:1002100096010E94A2090E94140AF80160832896A0
:100220000FB6F894DEBF0FBECDBFDF91CF911F9107
:100230000F91FF90EF90DF90CF90BF90AF909F9085
:100240008F900895CF92DF92EF92FF920F931F93BA
:10025000CF93DF938C016A017B010E94A60580E0A9
:100260000E94820380E690E00E949005F801658577
:100270007685878590890E9418068BE690E00E941B
:10028000900581E00E9482038FE690E00E94900535
:10029000F801808190E00E94CA0585E790E00E9405
:1002A000900584E00E94820387E790E00E94900519
:1002B000F80161857285838594850E9418068DE713
:1002C00090E00E94900585E00E94820320E03EE3DA
:1002D00048E05CE16AE270E080E090E00E94930315
:1002E000C0E00BC028E038E048E058E068E070E08B
:1002F00080E090E00E949303CF5FF80161817281FA
:1003000083819481A70196010E94A2090E94140A88
:10031000C61740F328E038E048E058E068E070E0B5
:1003200080E090E00E949303C0E00BC028E038E03A
:1003300048E058E068E070E080E090E00E949303BD
:10034000CF5FF8016581768187819085A70196014D
:100350000E94A2090E94140AC61740F32AE23CE157
:1003600048E05EE360E070E080E090E00E9493038C
:1003700086E00E948203C0E04CC020E430E44EE7F7
:1003800052E062E070E080E090E00E949303CB5F77
:10039000D0E00CC022E032E042E052E062E070E0E7
:1003A00080E090E00E949303CB5FDF5FF801618102
:1003B000728183819481A70196010E94A2090E9403
:1003C000140AD61738F322E032E04EE750E460E436
:1003D00070E080E090E00E949303CB5FD0E00CC01F
:1003E00020E430E440E450E460E470E080E090E039
:1003F0000E949303CB5FDF5FF8016581768187817F
:100400009085A70196010E94A2090E94140AD6179E
:1004100038F3C83708F4B1CFDF91CF911F910F9116
:10042000FF90EF90DF90CF900895CF93C82F40E0DA
:1004300062E081E00E94090740E061E081E00E9403
:1004400009074C2F417060E080E00E940907C1FB62
:10045000442740F961E080E00E940907C2FB44277D
:1004600040F962E080E00E940907C3FB442740F99D
:1004700063E080E00E940907C4FB442740F964E080
:1004800080E00E940907C5FB442740F965E080E051
:100490000E940907C6FB442740F966E080E00E94FD
:1004A00009074C2F441F4427441F67E080E00E9447
:1004B000090741E060E081E00E9409078FE99FE0C1
:1004C0000197F1F700C0000040E060E081E00E9489
:1004D0000907CF910895CF93C82F41E062E081E0F2
:1004E0000E94090740E061E081E00E9409074C2F6B
:1004F000417060E080E00E940907C1FB442740F999
:1005000061E080E00E940907C2FB442740F962E0F5
:1005100080E00E940907C3FB442740F963E080E0C4
:100520000E940907C4FB442740F964E080E00E9470
:100530000907C5FB442740F965E080E00E940907F0
:10054000C6FB442740F966E080E00E9409074C2F73
:10055000441F4427441F67E080E00E94090741E0F0
:1005600060E081E00E9409078FE99FE00197F1F7C1
:1005700000C0000040E060E081E00E940907CF91E8
:100580000895813089F028F08230D9F0833039F134
:10059000089540E064E081E00E94090740E065E0E2
:1005A00081E00E940907089541E064E081E00E9433
:1005B000090740E065E081E00E9409071092800091
:1005C000089540E064E081E00E94090741E065E0B1
:1005D00081E00E94090781E080938000089541E056
:1005E00064E081E00E94090741E065E081E00E944B
:1005F0000907089541E062E081E00E94900641E031
:1006000061E081E00E94900641E060E081E00E94AC
:10061000900641E066E081E00E94900641E064E0DF
:1006200081E00E94900641E065E081E00E94900632
:1006300041E060E080E00E94900641E061E080E0FF
:100640000E94900641E062E080E00E94900641E056
:1006500063E080E00E94900641E064E080E00E9458
:10066000900641E065E080E00E94900641E066E08F
:1006700080E00E94900641E067E080E00E949006E2
:1006800040E066E081E00E9409078FE39CE9019762
:10069000F1F700C0000041E066E081E00E94090738
:1006A0008FE99FE00197F1F700C0000083E00E940E
:1006B000C1028FE99FE00197F1F700C000008FE3CE
:1006C0000E94150280EC0E9415028FE99FE00197BD
:1006D000F1F700C0000081E00E94C1028FE99FE0B5
:1006E0000197F1F700C000000895809381006093A6
:1006F000820088540E94150280918200805C0E94D2
:1007000015020895CF93883060F4C82F81E00E94CD
:10071000C10260E070E08C2F90E00E94750310929F
:100720008200CF9108958F929F92AF92BF92CF9205
:10073000DF92EF92FF920F931F93CF93DF93822E5E
:10074000932EA42EB52EC62ED72EE82EF92EC0E05D
:10075000D0E03EC06091820070E08091810090E026
:100760000E947503282D392D4A2D5B2D6C2D7D2D72
:100770008E2D9F2D8E01000F111F000F111F000FD6
:10078000111F0E94550B822F0E946B0280918200E4
:100790008F5F809382008C3348F0809180008111BC
:1007A00005C082E00E94C102109282008091820006
:1007B0008C3368F080918000813049F40E94C1023E
:1007C000809181008F5F809381000E948203219637
:1007D000C530D1050CF4BECFDF91CF911F910F91A1
:1007E000FF90EF90DF90CF90BF90AF909F908F9051
:1007F000089590E0FC01B097EB35F10508F063C176
:10080000E65DFF4F0C943E0B2CE732E141E152E1F3
:100810006CE770E080E090E00E94930354C12FE702
:1008200039E049E059E061E070E080E090E00E944A
:10083000930349C12FE739E049E159E26FE470E0E1
:1008400080E090E00E9493033EC12FE739E449E441
:1008500059E461E470E080E090E00E94930333C1CA
:100860002EE131E241E35EE360E470E080E090E09D
:100870000E94930328C12FE330E440E450E46FE387
:1008800070E080E090E00E9493031DC12FE732E00A
:100890004CE150E26FE770E080E090E00E9493034B
:1008A00012C12EE331E441E451E461E470E080E000
:1008B00090E00E94930307C123E03CE040E75CE046
:1008C00063E070E080E090E00E949303FCC02FE7BB
:1008D00031E441E45EE360E070E080E090E00E949B
:1008E0009303F1C021E031E04FE751E061E070E0B7
:1008F00080E090E00E949303E6C02FE738E044E1F7
:1009000052E261E470E080E090E00E949303DBC07B
:100910002FE738E048E058E06FE770E080E090E0D3
:100920000E949303D0C021E631E549E455E463E435
:1009300070E080E090E00E949303C5C02FE732E0B2
:100940004CE052E06FE770E080E090E00E9493039B
:10095000BAC02FE439E449E459E469EF70E080E07B
:1009600090E00E949303AFC021E431E44FE751E4EB
:1009700061E470E080E090E00E949303A4C023EC67
:1009800033E748E15EEC63EC70E080E090E00E94C9
:10099000930399C024E234E244E254E264E270E05A
:1009A00080E090E00E9493038EC020E030E740E7B3
:1009B00050E760E070E080E090E00E94930383C025
:1009C00020E030E040E050E060E070E080E090E067
:1009D0000E94930378C028E138E148E158E168E1DA
:1009E00070E080E090E00E9493036DC02EE331E55B
:1009F00049E455E46EE370E080E090E00E949303E8
:100A000062C024E432E44FE750E460E470E080E048
:100A100090E00E94930357C026E431E641E55EE48E
:100A200060E470E080E090E00E9493034CC021E419
:100A300039E449E459E466E370E080E090E00E9424
:100A4000930341C028E134E142E15FE760E170E0F7
:100A500080E090E00E94930336C02FE439E449E43B
:100A600051E561E270E080E090E00E9493032BC0CA
:100A70002CE73AE449E459E461E370E080E090E077
:100A80000E94930320C021E039E449E259E16FE07C
:100A900070E080E090E00E94930315C027E739E4FE
:100AA00049E459E467E770E080E090E00E94930336
:100AB0000AC02FE439E449E459E46FE770E080E0CC
:100AC00090E00E9493036091820070E08091810029
:100AD00090E00E94750380E00E946B02809182008A
:100AE0008F5F809382008C3348F080918000811169
:100AF00005C082E00E94C1021092820080918200B3
:100B00008C3368F080918000813049F40E94C102EA
:100B1000809181008F5F809381000E9482030895FD
:100B20000F931F93CF93009729F40CC00E94F903F1
:100B3000CF5F02C08C01C0E0F801EC0FF11D808195
:100B40008111F4CFCF911F910F910895CF93DF932F
:100B500083E00E94C102D0E00FC06C2F70E08D2FA7
:100B600090E00E94750380E00E946B02CF5F01C09D
:100B7000C0E0CC3390F3DF5FD830D0F381E00E9447
:100B8000C10260E070E080E090E00E947503DF91B8
:100B9000CF9108950F931F93CF93DF9300D000D090
:100BA0001F92CDB7DEB7AC01FE0131968F010F5F0A
:100BB0001F4F9A01ADECBCEC0E94440B96958795B3
:100BC00096958795969587959C01220F331F880FE0
:100BD000991F880F991F880F991F820F931F9A01E1
:100BE000281B390BC901805D80839A010E94440B48
:100BF000AC01569547955695479556954795F801FA
:100C00004115510599F605C0F80182918F010E94A6
:100C1000F903CE01019680179107B1F70F900F905D
:100C20000F900F900F90DF91CF911F910F9108952A
:100C3000CF92DF92EF92FF921F93CF93DF936B01DE
:100C40007C010E94140AC62F862F90E00E94CA05DC
:100C50008EE20E94F9036C2F70E080E090E00E9429
:100C6000430A9B01AC01C701B6010E94350910E09F
:100C70001CC020E030E040E251E40E94D10A6B0148
:100C80007C010E94140AC62FD0E0CE010E94CA0542
:100C9000BE01DD0F880B990B0E94450A9B01AC0138
:100CA000C701B6010E9435091F5F133010F3DF91B1
:100CB000CF911F91FF90EF90DF90CF900895CF9349
:100CC000DF93CDB7DEB761970FB6F894DEBF0FBEE6
:100CD000CDBF0E94A400FE01319681E1DF011D928B
:100CE0008A95E9F7CE0101960E94B3006A857B855B
:100CF0008C859D8520E030E040E450E40E94A2090C
:100D0000AB01BC01CE0101960E942201BFEF23ED91
:100D100080E3B15020408040E1F700C00000E2CF06
:100D2000813019F130F08230E1F1833009F455C09F
:100D30000895442319F0413069F008952AB381E001
:100D400090E002C0880F991F6A95E2F78095822390
:100D50008ABB08952AB381E090E002C0880F991FF2
:100D60006A95E2F7822B8ABB0895442319F041303B
:100D700069F0089527B381E090E002C0880F991FC1
:100D80006A95E2F78095822387BB089527B381E0B7
:100D900090E002C0880F991F6A95E2F7822B87BB0B
:100DA0000895442319F0413069F0089524B381E097
:100DB00090E002C0880F991F6A95E2F78095822320
:100DC00084BB089524B381E090E002C0880F991F8E
:100DD0006A95E2F7822B84BB0895442319F04130D1
:100DE00069F0089521B381E090E002C0880F991F57
:100DF0006A95E2F78095822381BB089521B381E053
:100E000090E002C0880F991F6A95E2F7822B81BBA0
:100E10000895813019F130F08230E1F1833009F426
:100E200055C00895442319F0413069F008952BB35B
:100E300081E090E002C0880F991F6A95E2F78095E3
:100E400082238BBB08952BB381E090E002C0880F12
:100E5000991F6A95E2F7822B8BBB0895442319F002
:100E6000413069F0089528B381E090E002C0880F16
:100E7000991F6A95E2F78095822388BB089528B36D
:100E800081E090E002C0880F991F6A95E2F7822BFB
:100E900088BB0895442319F0413069F0089525B3C3
:100EA00081E090E002C0880F991F6A95E2F7809573
:100EB000822385BB089525B381E090E002C0880FAE
:100EC000991F6A95E2F7822B85BB0895442319F098
:100ED000413069F0089522B381E090E002C0880FAC
:100EE000991F6A95E2F78095822382BB089522B309
:100EF00081E090E002C0880F991F6A95E2F7822B8B
:100F000082BB0895CF93C82F40E066E083E00E9443
:100F100090061FBC88B7806288BF8EB581608EBD89
:100F2000C23099F018F4C13031F02CC0C330B9F0A0
:100F3000C430F9F027C08EB58E7F8EBD8EB582602D
:100F40008EBD8EB58B7F8EBD1DC08EB581608EBD72
:100F50008EB582608EBD8EB58B7F8EBD13C08EB573
:100F60008E7F8EBD8EB58D7F8EBD8EB584608EBD1D
:100F700009C08EB58E7F8EBD8EB582608EBD8EB55A
:100F800084608EBDCF910895882319F0813029F0B7
:100F900008958EB580648EBD08958EB58F7B8EBD0D
:100FA0000895FC0186B597B591838083089508B6AE
:100FB00005FC02C080E0089581E008958F929F9221
:100FC000AF92BF92EF92FF920F931F93CF93DF9355
:100FD00000D000D000D0CDB7DEB7182F7B011A8229
:100FE00019821C821B821E821D8280E00E94C4071F
:100FF0000E94D7078823E1F3CE0101960E94D10712
:1010000088B7806288BF81E00E94C4070E94D7072A
:101010008823E1F3CE0103960E94D10788B780624E
:1010200088BF80E00E94C4070E94D7078823E1F3AD
:10103000CE0105960E94D10788B7806288BF123022
:1010400061F018F4113011F104C0133069F014305C
:10105000A1F0812C912C540120C0812C912C5401A1
:101060006894A7F8B6F819C00F2E812C912CF0E8DF
:10107000AF2EF1E4BF2EF02D10C00F2E812C912C3D
:10108000F0E8AF2EF2E4BF2EF02D07C00F2E812C1A
:10109000912CA12CFFE3BF2EF02D89819A816B81C9
:1010A0007C81681B790B0D811E81081B190B80E068
:1010B00090E00E94430A9B01AC01C501B4010E946B
:1010C000D10A20E030E04AE754E40E94D10A20E04F
:1010D00034E244E75BE40E94A209F7016083718374
:1010E00082839383B80180E090E00E94430A9B01D1
:1010F000AC01C501B4010E94D10A20E030E04AE70A
:1011000054E40E94D10A20E034E244E75BE40E9408
:10111000A209F701648375838683978326960FB6A9
:10112000F894DEBF0FBECDBFDF91CF911F910F911D
:10113000FF90EF90BF90AF909F908F900895CF93C6
:10114000DF93C82FD62F41E063E081E00E94900634
:10115000C13021F050F0C23079F014C083B7806400
:1011600083BF83B7877F83BF0DC083B78F7B83BF68
:1011700083B7886083BF06C083B7806483BF83B7AB
:10118000886083BFDD2319F0D13041F00DC083B7F3
:101190008F7E83BF83B7806283BF06C083B78061C1
:1011A00083BF83B7806283BFDF91CF910895582FAB
:1011B000453608F059C0662319F0613091F022C01D
:1011C000242F30E0322F2227369527953695279504
:1011D000ABE7B4E10E94440B9695879581508CBF94
:1011E00011C024E6241B30E0322F222736952795A4
:1011F00036952795ABE7B4E10E94440B9695879509
:1012000081508CBF523099F018F4513031F008956C
:101210005330B9F05430F9F0089583B78E7F83BF0F
:1012200083B7826083BF83B78B7F83BF089583B703
:10123000816083BF83B7826083BF83B78B7F83BFA7
:10124000089583B78E7F83BF83B78D7F83BF83B7B6
:10125000846083BF089583B7816083BF83B78D7F28
:1012600083BF83B7846083BF08955058BB27AA27E4
:101270000E944D090C94970A0E94890A38F00E9436
:10128000900A20F039F49F3F19F426F40C94860A52
:101290000EF4E095E7FB0C94800AE92F0E94A80A5F
:1012A00058F3BA17620773078407950720F079F49B
:1012B000A6F50C94CA0A0EF4E0950B2EBA2FA02DB9
:1012C0000B01B90190010C01CA01A0011124FF27F3
:1012D000591B99F0593F50F4503E68F11A16F040EE
:1012E000A22F232F342F4427585FF3CF46953795ED
:1012F0002795A795F0405395C9F77EF41F16BA0BB2
:10130000620B730B840BBAF09150A1F0FF0FBB1F5F
:10131000661F771F881FC2F70EC0BA0F621F731FA8
:10132000841F48F4879577956795B795F7959E3F05
:1013300008F0B0CF9395880F08F09927EE0F979596
:10134000879508950E94B6090C94970A0E94900A06
:1013500058F00E94890A40F029F45F3F29F00C946C
:10136000800A51110C94CB0A0C94860A0E94A80A98
:1013700068F39923B1F3552391F3951B550BBB27C4
:10138000AA2762177307840738F09F5F5F4F220F09
:10139000331F441FAA1FA9F335D00E2E3AF0E0E800
:1013A00032D091505040E695001CCAF72BD0FE2F4A
:1013B00029D0660F771F881FBB1F261737074807DE
:1013C000AB07B0E809F0BB0B802DBF01FF27935896
:1013D0005F4F3AF09E3F510578F00C94800A0C94D0
:1013E000CB0A5F3FE4F3983ED4F3869577956795F3
:1013F000B795F7959F5FC9F7880F911D96958795CB
:1014000097F90895E1E0660F771F881FBB1F6217E9
:1014100073078407BA0720F0621B730B840BBA0BA7
:10142000EE1F88F7E09508950E94B00A88F09F5754
:1014300098F0B92F9927B751B0F0E1F0660F771FF8
:10144000881F991F1AF0BA95C9F714C0B13091F0EE
:101450000E94CA0AB1E008950C94CA0A672F782F37
:101460008827B85F39F0B93FCCF3869577956795B3
:10147000B395D9F73EF490958095709561957F4F1F
:101480008F4F9F4F0895E89409C097FB3EF49095C5
:101490008095709561957F4F8F4F9F4F9923A9F04D
:1014A000F92F96E9BB279395F695879577956795DC
:1014B000B795F111F8CFFAF4BB0F11F460FF1BC020
:1014C0006F5F7F4F8F4F9F4F16C0882311F096E9B3
:1014D00011C0772321F09EE8872F762F05C0662361
:1014E00071F096E8862F70E060E02AF09A95660F1A
:1014F000771F881FDAF7880F9695879597F90895D3
:1015000097F99F6780E870E060E008959FEF80ECB6
:10151000089500240A941616170618060906089559
:1015200000240A9412161306140605060895092EBF
:101530000394000C11F4882352F0BB0F40F4BF2B2E
:1015400011F460FF04C06F5F7F4F8F4F9F4F08956E
:1015500057FD9058440F551F59F05F3F71F0479564
:10156000880F97FB991F61F09F3F79F08795089549
:10157000121613061406551FF2CF4695F1DF08C068
:10158000161617061806991FF1CF86957105610585
:1015900008940895E894BB2766277727CB0197F92D
:1015A00008950E94E40A0C94970A0E94890A38F070
:1015B0000E94900A20F0952311F00C94800A0C945C
:1015C000860A11240C94CB0A0E94A80A70F3959FF6
:1015D000C1F3950F50E0551F629FF001729FBB272A
:1015E000F00DB11D639FAA27F00DB11DAA1F649FC6
:1015F0006627B00DA11D661F829F2227B00DA11D79
:10160000621F739FB00DA11D621F839FA00D611DFE
:10161000221F749F3327A00D611D231F849F600D1F
:10162000211D822F762F6A2F11249F5750409AF048
:10163000F1F088234AF0EE0FFF1FBB1F661F771FD4
:10164000881F91505040A9F79E3F510580F00C949F
:10165000800A0C94CB0A5F3FE4F3983ED4F386955E
:1016600077956795B795F795E7959F5FC1F7FE2B3F
:10167000880F911D9695879597F90895EE0FFF1F96
:101680000590F491E02D0994A29FB001B39FC00191
:10169000A39F700D811D1124911DB29F700D811D9E
:1016A0001124911D089597FB10F8169400080F93CC
:1016B000083098F00850232F342F452F562F672FCE
:1016C000782F892F902DF4CF05949795879577954E
:1016D000679557954795379527950A95AAF70F91DE
:0616E0000895F894FFCF0D
:1016E6006672657175656E63793D006B687A006434
:1016F6007574793D00250074696D653D006D730054
:00000001FF
